:1000000000000120750300005D0300005F03000095
:1000100061030000630300006503000000000000AE
:100020000000000000000000000000006703000066
:1000300069030000000000006B0300006D03000076
:100040006F0300006F030000310800006F03000021
:100050006F0300006F0300006F0300006F030000D8
:100060006F0300006F0300006F0300006F030000C8
:100070006F0300006F0300006F0300006F030000B8
:100080006F0300006F0300006F0300006F030000A8
:100090006F0300006F0300006F0300006F03000098
:1000A0006F0300006F0300006F0300006F03000088
:1000B0006F0300006F03000000000000000000005C
:1000C0006F0300006F0300006F0300006F03000068
:1000D0006F0300006F0300006F03000000000000CA
:1000E0000000000000000000000000000000000010
:1000F0000000000000000000000000000000000000
:1001000000000000000000000000000000000000EF
:1001100000000000000000000000000000000000DF
:1001200000000000000000000000000000000000CF
:1001300000000000000000000000000000000000BF
:1001400000000000000000000000000000000000AF
:10015000000000000000000000000000000000009F
:10016000000000000000000000000000000000008F
:10017000000000000000000000000000000000007F
:10018000000000000000000000000000000000006F
:10019000000000000000000000000000000000005F
:1001A000000000000000000000000000000000004F
:1001B000000000000000000000000000000000003F
:1001C000000000000000000000000000000000002F
:1001D000000000000000000000000000000000001F
:1001E000000000000000000000000000000000000F
:1001F00000000000000000000000000000000000FF
:10020000354936480A1A02D0072291438D463449AF
:1002100034480A1A06D00722914381F30988022242
:1002200082F3148830483149314A00F044F83148AB
:100230003149324A00F03FF831483249324A00F041
:100240003AF832483249334A00F035F832483349F7
:10025000334A00F030F833483349344A00F02BF881
:1002600033483449344A00F026F8344834490022EF
:1002700000F02CF833483449002200F027F83348C6
:100280003349091A082902DB002202604160314A21
:1002900090471F481F49884205D00268043003B4C4
:1002A000904703BCF7E700208646EC46002000217B
:1002B000294A9047FEE7884207D0521A05D00378B2
:1002C00001300B700131013AF9D17047884202D0F8
:1002D00002700130FAE770470000012000E00020C2
:1002E0000000012000000120141E0000000000207A
:1002F00018000020D0030000D00300008C1D000077
:10030000141E000000000020000000208C1D0000D2
:100310008C1D00008C1D00008C1D00008C1D000039
:100320008C1D00008C1D00008C1D0000141E0000A0
:100330002C1E0000180000201800002018000020CB
:10034000B0020020B0020020B0020020B002002065
:10035000B02200209D030000D1110000FEE7FEE75F
:10036000FEE7FEE7FEE7FEE7FEE7FEE7FEE7FEE765
:1003700000F002B8FFF7FCBF0F484FF007018843B9
:1003800085460E4880470E48016841F470010160BF
:10039000BFF34F8FBFF36F8FFFF732BF09480A4992
:1003A0000A4A884207D0521A05D0037801300B70F0
:1003B0000131013AF9D1704700000120B912000063
:1003C00088ED00E08C1D00000000002000000020EF
:1003D000044B1A5C012393404FF0A042C2F8083549
:1003E000704700BF8C1D000008B50020FFF7F0FF2C
:1003F0000120FFF7EDFF0220FFF7EAFF0320BDE831
:100400000840FFF7E5BFC20708B501460CD54FF01D
:10041000A0430322C3F84427C3F84827C3F84C2756
:10042000C3F85027FFF7E0FF8B070AD54FF0A04332
:100430000C22C3F83427C3F83827C3F83C27C3F885
:100440002C2708BD1FB50021039001AA44F201002A
:10045000CDE9011100F004F805B05DF804FB0000DF
:1004600072B6094B1B68DB0700D500BEBFF34F8F88
:100470000649074BCA6802F4E0621343CB60BFF33E
:100480004F8F00BFFDE700BFF0ED00E000ED00E0A2
:100490000400FA0549B152B1531E1A4007D18260D7
:1004A00001608380C260104670470E2070470920AB
:1004B000704710B58468C2688388121B934208D3C2
:1004C000C26813400268D154C3680133C36000207E
:1004D00010BD0420FCE78268C3689A420AD0826893
:1004E000838813400268D35C0B7083680133836098
:1004F00000207047052070470648074A03780749DF
:10050000D35C012213B1043000F0ECBD0C3000F0DC
:10051000AFBB00BF000000205000002040000020C2
:100520000648074A03780749D35C012213B1043017
:1005300000F084BD0C3000F045BB00BF000000207F
:10054000500000204100002037B50578012D05D06E
:10055000002D32D0022D25D003B030BD037A13B95F
:10056000FFF7CAFFF8E743681A4C19782046FFF7EF
:10057000A0FF80B18DF800500190174B68461B68B2
:100580009847A168E368A2885B1A9A42E8D2134BA5
:1005900001221A70E0E7A268E3689A42F1D08DF870
:1005A0000000EAE7C3688DF800500193FFF7A4FF4D
:1005B000094B68461B689847CEE709490948FFF789
:1005C0008AFF10B9FFF7ACFFC6E703238DF80030B0
:1005D000EEE700BF1C000020180000202C000020C7
:1005E0004100002030000020F0B51F46234B89B0A9
:1005F00006461A600C4600293DD08A8820480968C2
:10060000FFF748FF002834D1A289A1681D48FFF7F1
:1006100041FF00282DD11C4D0FCD6C460FC495E82D
:100620000F0084E80F0073690693337C174A18485B
:100630008DF81C70003318BF01238DF81430737CC3
:10064000002B14BF0E2300238DF81530F36802939E
:10065000B36803933368019369467368009300F0AD
:10066000ABF830B90B4B18703368013301D0FFF78A
:1006700043FF09B0F0BD0720FBE700BF18000020D2
:100680001C00002030000020901D000049050000E3
:10069000000000202C00002070B5084C01460848DE
:1006A0002678FFF718FF054636B100232370FFF7C1
:1006B00023FF08B1FFF7C6FE284670BD2C000020BE
:1006C0001C00002010B501460E48FFF7F2FE04465C
:1006D000A8B90D480D4A0378D35C63B1043000F02B
:1006E000F5FC60B90A490748FFF7F5FE38B9BDE8DF
:1006F0001040FFF715BF0C3000F0AEFAF1E72046CE
:1007000010BD00BF3000002000000020500000207D
:100710004100002072B6024A13680133136070472B
:1007200044000020034A1368013B136003B962B61A
:10073000704700BF44000020FFF7ECBFFFF7F2BF97
:1007400010B50446C0B2FFF7BDFF204610BD000043
:100750001FB503788DF800304368019383688DF8E6
:100760000830C3680393054A054B684653F82130A7
:1007700052F82110984705B05DF804FB48000020AE
:100780004C0000201FB503788DF8003043680193BA
:1007900083688DF80830C3680393054A054B6846A3
:1007A00053F8213052F82110984705B05DF804FB4A
:1007B000480000204C000020F0B5184B077891F855
:1007C0001DE043F82720164B16460A6943F82720F8
:1007D000144B03F807E00C4684460FCC89B06D46F5
:1007E0000FC594E80F0085E80F000497BEF1000FD5
:1007F0000AD0002E0C4A694608BF32460CF10400AC
:1008000000F056FB09B0F0BD002E084A694608BF4B
:1008100032460CF10C0000F01BF9F3E74C0000200D
:10082000480000205000002051070000850700000C
:10083000014B1B68184700BF5400002038B50B4B14
:1008400098420D4601D0002038BD0020FFF774FF0C
:10085000074B1C7914B901221D601A710020FFF7A3
:100860006DFF002CEFD01120EEE700BF002000400C
:10087000540000200023435082B043580193019B51
:1008800002B070470A4610B54FF48E71FFF7F2FFC1
:10089000136A9168C95C136A01331362C0F81C15AE
:1008A00010BD024608B54FF492710068FFF7E2FFF1
:1008B0004FF484711068FFF7DDFF136801221A609E
:1008C00008BD8B690A4610B54FF4847123B9FFF750
:1008D000D1FFD0F8183510BDFFF7CCFF536AD168AF
:1008E000D0F81805C854536A01335362F3E7000087
:1008F0001FB501238DF80030044BCDE90110D3E979
:1009000000126846904705B05DF804FB5C000020CB
:1009100030B54D4AD2F8043313F4007F85B0154644
:100920004FD0D2F82431002B4BD04FF492711046A7
:10093000FFF7A0FF4FF40173C2F80833434B93F85D
:10094000291009B9012151603F4902228DF8002088
:10095000D1F88024C1F8802403929A690292DA685F
:1009600001920022C3E906226846D3E900129047AB
:100970003548D0F81C315BB134494A690B6A9A4258
:100980000A464BD991F82830002B47D1FFF77AFF60
:100990002D4AD2F8443193B14FF4A2711046FFF7BB
:1009A00069FF2A4B93F8291009B1012111609A6956
:1009B0002AB100229A61586AD968FFF799FF05B0F9
:1009C00030BDD5F804335B07D2D5D5F80831002BFC
:1009D000CED01E4C1C482146FFF773FF636AA26904
:1009E0009A422346C4D1E269E1684AB12369E360CF
:1009F0000023606AA261E3616362FFF779FFB7E7F2
:100A000094F829200AB901226A600F4A4FF4017054
:100A1000C2F8080300229A61586AEEE74FF48E711B
:100A20000948FFF727FF5369002BB1D051690291A4
:100A3000002391688DF80030019153616846D2E936
:100A400000139847A4E700BF002000405C0000208E
:100A50002DE9F843564F047991462C2202FB04728B
:100A6000064692F82A200D46002A40F09A80514905
:100A70000068FFF7E3FE8046002840F09580296873
:100A80003368481C0BD04FF0A04001228A40C0F8C8
:100A9000082501F5E0724FF0030C40F822C06868A9
:100AA000421C1FBF00F5E0724FF0A04C4FF0000E4B
:100AB0004CF822E0AA6995F814C0C3F824256A7D91
:100AC000BCF1010F4CEA0202C3F86C25C3F814050F
:100AD000C3F80C151DD1AA68511C1FBF02F5E071A7
:100AE0004FF0A0404FF0000C40F821C0E968481CCE
:100AF0000BD04FF0A04C01208840CCF8080501F540
:100B0000E0704FF0030E4CF820E0C3F80815C3F86E
:100B100010252C236343FA18C2F804902A69FA506E
:100B2000B9F1000F2AD04FF48E7130682D7FFFF796
:100B3000A1FE30684FF4A271FFF79CFE32681E4B95
:100B4000C2F80433120B51B20029A8BF01F1604072
:100B50004FEA4513BABF194802F00F0500F561408E
:100B6000DBB2B4BF435580F8003302F01F0201230B
:100B700003FA02F24909124B43F821203368042298
:100B8000C3F800252C2303FB04730022C3E90622CB
:100B900083F829205A61012283F82A204046BDE8C3
:100BA000F8834FF00808F9E74FF01108F6E700BFA7
:100BB0005C000020110900008000020014ED00E03C
:100BC00000E100E02DE9F84F224F06794FF02C09A3
:100BD00009FB067480466569002D38D16261A16009
:100BE00025624FF48E71006884F82850FFF742FEAA
:100BF000D8F80000012383602146FFF743FE6368B5
:100C0000A1469BB9D8F800A0D4F814B0236A9B453C
:100C100012D8D8F80020D2F81C31002BFBD00123C9
:100C2000D3602C2303FB067300225A612846BDE8DB
:100C3000F88F94F8283043B9DAF81C31002BF8D03B
:100C400049465046FFF71EFEE0E70F25E9E711256C
:100C5000ECE700BF5C0000200379044A2C2101FB73
:100C600003235869003018BF012070475C00002042
:100C70002DE9F843394E05792C2303FB056307461C
:100C80005C6824B103684FF40170C3F808032C2397
:100C900003FB0563986950B1D86900283ED024B1A0
:100CA0003B684FF40172C3F80423112433E09A61C6
:100CB000D9605862D8612C2303FB056393F829306F
:100CC0001BB910B93846FFF7ECFD4FF02C0909FBB2
:100CD00005683868D8F80430002B34D14FF4A2717D
:100CE000FFF7C8FDC1463868D0F82431D0F8082194
:100CF000D0F84441B2B90CB9002BF4D02C2202FB3D
:100D000005650022AA6123BB2CBB95F829103B681E
:100D10000122B1B11A602046BDE8F8831961DA6199
:100D20000120C8E7002BE9D1002CE7D14946FFF7A5
:100D3000C8FDD8F82430D8F818209A42D3D82346D2
:100D4000DCE75A60E7E74FF40173C0F8043300248E
:100D5000E1E70324DFE70F24DDE700BF5C000020AC
:100D60000023435082B043580193019B02B0704767
:100D70001FB501238DF80030044BCDE90110D3E9F4
:100D800000126846904705B05DF804FB880000201B
:100D90007FB5454AD2F82461002E63D010464FF447
:100DA0009271FFF7DDFF02238DF80030D2F8803416
:100DB000C2F880340393D2F83C3502933B4BDA6897
:100DC00001920022C3E906226846D3E90012904747
:100DD000354AD2F844317BB14FF4A2711046FFF787
:100DE000BFFF324B996939B10021C3E90611D968B7
:100DF000D2F83C05FFF7BCFF2B4AD2F82031B3B143
:100E00004FF490711046FFF7ABFF0123D360274BDF
:100E1000596961B1D2F84C150291002299688DF898
:100E2000002001915A616846D3E9001290471E4A9A
:100E3000D2F85831A3B14FF4AC711046FFF790FFD0
:100E40001A4B596961B1D2F84C1502910022996888
:100E50008DF8002001915A616846D3E9001290474D
:100E600004B070BDD2F81031002BB1D04FF48871AE
:100E70001046FFF775FF0D4BD2F83C059969884283
:100E8000A6D1DC69D96864B1D2F8005225F02005FA
:100E9000C2F800521A699C61DA60DE61FFF768FFF0
:100EA00096E79C61FAE700BF002000408800002020
:100EB0002DE9F8435C4F06799146242202FB067225
:100EC000044692F820200D46002A40F0A78057499A
:100ED0000068FFF7B3FC8046002840F0A280296834
:100EE0002368481C0BD04FF0A04001228A40C0F874
:100EF000082501F5E0724FF0030C40F822C0686845
:100F0000421C1FBF00F5E0724FF0A04C4FF0000EE6
:100F10004CF822E0AA6995F814C0C3F824256A7D2C
:100F2000BCF1010F4CEA0202C3F86C25C3F80C15A2
:100F3000C3F814051DD1AA68511C1FBF02F5E0714A
:100F40004FF0A0404FF0000C40F821C0E968481C69
:100F50000BD04FF0A04C01208840CCF8080501F5DB
:100F6000E0704FF0030E4CF820E0C3F80815C3F80A
:100F7000102524237343FA18C2F804902A69FA5002
:100F8000B9F1000F39D04FF4887120682D7FFFF739
:100F9000E7FE4FF490712068FFF7E2FE4FF4927184
:100FA0002068FFF7DDFE4FF4A2712068FFF7D8FE3E
:100FB00020684FF4AC71FFF7D3FE22681C4BC2F8D7
:100FC0000433120B51B20029A8BF01F160404FEA6F
:100FD0004513BABF174802F00F0500F56140DBB2B8
:100FE000B4BF435580F8003302F01F02012303FA17
:100FF00002F24909104B43F8212023680822C3F864
:101000000025242303FB06730022C3E906225A614C
:10101000012283F820204046BDE8F8834FF00808FD
:10102000F9E74FF01108F6E788000020910D000065
:101030001003420014ED00E000E100E001F0604325
:10104000B3F1005F2DE9F041074638D11E4B067918
:10105000242505FB063598466C69002C31D16A6160
:10106000A96000684FF49071FFF77AFE4FF4AC71FD
:101070003868FFF775FE3B686A69A968C3F84415CC
:10108000C3F8482501229A606A68AAB9D3F82021DA
:10109000D3F858411AB9002CF8D00F2407E0002CDF
:1010A000FBD10122DA60D3F85821002AFBD0242397
:1010B00003FB0686002373612046BDE8F0811024FF
:1010C000FAE71124F8E700BF880000200379044AFA
:1010D000242101FB03235869003018BF0120704709
:1010E00088000020F8B501F06043B3F1005F0446CA
:1010F0000F465ED10379304D242101FB035148682E
:1011000020B121684FF40476C1F80863242101FB63
:1011100003539E6956B1D969002939D020B123689B
:101120004FF40472C3F80423112030E09A61DF60A9
:10113000DE614FF488712068FFF712FE4FF4A27150
:101140002068FFF70DFE2368C3F83475C3F838250F
:1011500016BB01221A602179242202FB0152526837
:101160000ABBD3F81041D3F84421D3F82401144327
:1011700002D10028F5D02246242303FB0155002389
:10118000984218BF03209A42AB6118BF0F20F8BDE8
:101190001F61DA610126CCE7D3F8002242F0200279
:1011A000C3F80022D7E74FF40472C3F804230020E9
:1011B000EDE71020EBE700BF880000200378022B4A
:1011C00002D14068FFF73EB9012BFAD0704700000A
:1011D00030B5164D8BB00120FFF715F90FCD04ACDB
:1011E0000FC495E80300124B124A00934FF480732A
:1011F00084E80300CDE9022301930F4A07236946DF
:1012000004A8FFF7F1F908B1FFF71CF90B480C4CE3
:1012100000F0B6F96846FFF73FFA0028FAD19DF8CA
:101220000010204600F0ACF9F4E700BFB01D00004C
:10123000AC000020AC010020BD110000C81D000062
:10124000E21D00000C4B1B78062B10D10B4B1B68CA
:101250001A070CD10A4B186800F0F003302B08D0A5
:1012600000F0E000A0F140035842584170470020D0
:1012700070470120704700BFE00F00F0E40F00F05E
:10128000E80F00F0094B1B78062B0CD1084B1B68AC
:101290001A0708D1074B186800F0F000A0F13003DE
:1012A0005842584170470020704700BFE00F00F0DF
:1012B000E40F00F0E80F00F008B5FFF7C3FF28B116
:1012C0007D4B7E4A1B68C3F304231360FFF7DAFFEC
:1012D00010B17B4B7B4A1A60FFF7B4FF28B17A4B01
:1012E0007A4A1B68C3F342331360FFF7CBFF20B188
:1012F000774AD36823F08073D360FFF7A3FF40B130
:101300004FF080430022C3F80C21C3F81021C3F82A
:101310003825FFF7B7FF10B16E4B03221A60FFF7B5
:10132000B1FF40B16C4B05221A6001229A6700227E
:101330009A603F225A60694B1B78062B50D1684B4C
:101340001B6819074CD1674B1B6803F0F003502B47
:1013500046D14FF08052644BD2F80414C3F82015E4
:10136000D2F80814C3F82415D2F80C14C3F82815C1
:10137000D2F81014C3F82C15D2F81414C3F8301591
:10138000D2F81814C3F83415D2F81C14C3F8401559
:10139000D2F82014C3F84415D2F82414C3F8481521
:1013A000D2F82814C3F84C15D2F82C14C3F85015F1
:1013B000D2F83014C3F85415D2F83414C3F86015B9
:1013C000D2F83814C3F86415D2F83C14C3F8681581
:1013D000D2F84014C3F86C15D2F84424C3F8702531
:1013E000FFF730FF28B1414B414A1B6803F04F0320
:1013F0001360FFF727FF48B14FF08043D3F8002474
:10140000D20744BF6FF00102C3F80024394B1B68B8
:10141000062B08D1384B1B68062B01BF374A1368CF
:1014200043F480631360364AD2F8883043F4700383
:10143000C2F88830BFF34F8FBFF36F8F4FF0102388
:10144000D3F80022002A03DBD3F80432002B2FDA72
:101450002C4B0122C3F80425D3F80024002AFBD02A
:101460004FF010221521C2F80012D3F80024002AF0
:10147000FBD04FF010231522C3F80422214B1A464B
:10148000D3F800140029FBD00021C3F80415D2F8CA
:101490000034002BFBD0BFF34F8F19491A4BCA6899
:1014A00002F4E0621343CB60BFF34F8F00BFFDE750
:1014B000164B174A1A6008BD24030010403501403E
:1014C00074C007400DF0ADBA440200103C05004066
:1014D000F0ED00E0A005004010560040E00F00F0E5
:1014E000E40F00F0E80F00F000C0004058020010C8
:1014F000E40E004030010010340100103C170040A1
:1015000000ED00E000E001400400FA0514000020B6
:101510000090D00338B504460846A26842B123685B
:1015200061685D1C8D4208BF00208B4208D2D054F8
:10153000E3682BB121686268914201D22146984745
:1015400023680133236038BD70B54C1E09D416469C
:10155000C5B229463046FFF7DDFF013CB4F1FF3F3D
:10156000F7D170BD10F0100F09D108B500F400706C
:10157000002814BF30202020FFF7E6FF08BD704789
:101580000FB410B586B008AB53F8044B0593002395
:1015900003936FF000430293084B049300F051F85B
:1015A000059A214601A800F04FF8044600F04AF8D9
:1015B000204606B0BDE8104004B070474107000067
:1015C000037853B159B10144034613F8012F12B106
:1015D0008B42FAD10B46181A70470346FBE70346C5
:1015E000F9E700F1010110F0030F11D010F8012B01
:1015F000002A23D010F0030F0AD010F8012B002A84
:101600001CD010F0030F03D010F8012B002A15D0C6
:101610002DE970004FF001324FF0803350F8044B49
:10162000A4EB020525EA04051D4000D1F6E7A0F170
:10163000040070BC10F8012B002AFBD1A0EB0100C4
:1016400070477047704700002DE9F04F89B007469A
:101650000C46039200230360DFF82CB670E30025EC
:1016600002E045F040051C46234613F8010BA0F1AB
:1016700020023E2A00F2948001A151F822F000BF1E
:1016800063160000A1170000A11700007D170000DD
:10169000A1170000A1170000A11700008317000088
:1016A000A1170000A1170000A11700008F1700006C
:1016B000A117000095170000A1170000A117000056
:1016C0009B170000A1170000A1170000A117000040
:1016D000A1170000A1170000A1170000A11700002A
:1016E000A1170000A1170000A1170000A11700001A
:1016F000A1170000A1170000A1170000A11700000A
:10170000A1170000A1170000A1170000A1170000F9
:10171000A1170000A1170000A1170000A1170000E9
:10172000A1170000A1170000A1170000A1170000D9
:10173000A1170000A1170000A1170000A1170000C9
:10174000A1170000A1170000A1170000A1170000B9
:10175000A1170000A1170000A1170000A1170000A9
:10176000A1170000A1170000A1170000A117000099
:10177000A1170000A11700008917000045F080059F
:1017800071E745F400456EE745F480556BE745F099
:10179000200568E745F0100565E745F4007562E748
:1017A0002A2821D1039A111D0391D2F800A0BAF181
:1017B000000FBCBFCAF1000A45F010051878A31C41
:1017C0002AEAEA7A2E2826D00021742847D07A28DF
:1017D00045D06C2800F0C4804C2800F0C7806828F1
:1017E00000F0D4801C463DE0A0F13002D2B2092ABC
:1017F00088BF4FF0000AE3D84FF0000A0AEB8A0ACC
:10180000303800EB4A0A13F8010BA0F13002D2B2D3
:10181000092AF3D9D4E718782A280AD1039A111D86
:1018200003911168587802330029CEDB45F48075A6
:10183000CBE70133A0F13002D2B2092A88BF0021E0
:10184000F4D8002101EB8101303800EB410113F89D
:10185000010BA0F13002D2B2092AF3D9E4E71C4609
:1018600014F8010B782800F28480DFE810F085027C
:101870008200820082008200820082008200820058
:101880008200820082008200820082008200820048
:101890008200820082008200820082008200820038
:1018A0008200820082008200820082008200820028
:1018B00082008200820082009B00820082008200FF
:1018C0008200820082008200820082008200820008
:1018D00082008200820082008200820082008200F8
:1018E00082008200820082008200820082008200E8
:1018F00082008200820082008200820082008200D8
:1019000082008200820082008200820082008200C7
:101910008200820082008200820082008200110127
:1019200082008200820082008200820082008200A7
:1019300082008200A00047018200820082008200B3
:1019400047018200820082008200BA003401F60062
:1019500082008200CB0082004001820082001301DD
:101960001C4614F8010B45F001057BE745F0010525
:101970001C46C14B1E68002E00F0E28103AB0193B0
:10198000009153462A463946B047D9E1187868286D
:1019900003D05C1C45F0040564E745F008059C1C79
:1019A00058785FE725213846FFF7B4FDC8E1039B6F
:1019B0001A1D03921E780AF1FF3A3A46514628460C
:1019C000FFF7D0FD31463846FFF7A4FDA94619F0D0
:1019D000100F00F0B5813A4651462020FFF7B4FDC4
:1019E000AEE115F0080F06D03A68039B191D03916C
:1019F0001B681A70A4E1039B1A1D03921B683A68C6
:101A00001A609DE1039B1A1D0392D3F800809B4B43
:101A1000B8F1000F08BF9846464625F4007915F442
:101A2000807F15D04046FFF7CBFD0546AAEB050A9F
:101A30003A4651464846FFF795FD002DC7D045442C
:101A400016F8011B3846FFF765FDAE42F8D1BEE738
:101A50004046FFF7C6FD0546E8E7039B1A1D0392C3
:101A60001B6805F08002002A0CBF0026232645F4DF
:101A7000807508211A46002B00F02C8105AB4FF031
:101A8000000805F4005CA64660468C460146D1E09D
:101A900045F4005515F0800F1BD043F2780643F251
:101AA0005803782818BF1E4615F4807F01D025F40E
:101AB000007515F4804F34D0039B1A1D03921B68E8
:101AC00015F0040F20D01BB2002B21DA5B422D262B
:101AD0002FE00026E8E705F08003002B0CBF00266E
:101AE000302615F4807FE4D025F40075E1E715F485
:101AF000807F07D025F400750026DAE745F480459D
:101B00000026D6E70026D4E715F0080FDCD0DBB2BC
:101B100015F0200F61D105F04002002A18BF2026E1
:101B200007E0039B1A1D03921B6815F0040F4FD0AA
:101B30009BB215F4807F14BF25F40075012158383D
:101B4000202800F2C48001A252F820F0751A00008B
:101B5000CF1C0000CF1C0000CF1C0000CF1C0000D9
:101B6000CF1C0000CF1C0000CF1C0000CF1C0000C9
:101B7000CF1C0000CF1C0000CF1C0000051C000083
:101B8000CF1C0000CF1C0000CF1C0000CF1C0000A9
:101B9000051C0000CF1C0000CF1C0000CF1C000063
:101BA000CF1C0000CF1C0000DF1B0000751A0000D6
:101BB000CF1C0000CF1C0000CF1C0000CF1C000079
:101BC000051C0000CF1C0000CF1C0000751A00008F
:101BD00015F0080FADD0DBB2ABE72B26A9E71A460C
:101BE0004FF000087BB305A84FF0000803F007038F
:101BF000303300F8013B08F10108D2081346002AEF
:101C0000F4D120E018464FF00008E3B14FF000088F
:101C100005F4004E4FF02C0973468E46194647E0F6
:101C200002F00F00164C205C03F8010B08F10108CC
:101C3000120906D00029F3D002F00F00114C205CED
:101C4000F2E761467446A1EB080121EAE179AAEBCB
:101C5000090AAAEB080AFF2E3FD9AAF1020A15F4D5
:101C6000007F3FD0C6F307213846FFF753FCF1B29F
:101C70003846FFF74FFC41E0AC0200200C1E00008C
:101C8000EC1D0000FC1D0000CDCCCCCC08AB03EB60
:101C9000080CABFB0032D20802EB8203A0EB43033B
:101CA00030330CF80C3C08F1010809280DD9104616
:101CB0000029EBD008F00303032BE7D108AB434422
:101CC00003F80C9C08F10108E0E77146BBE74FF010
:101CD0000008B8E74FF00008B5E7002E4FD115F423
:101CE000007F0BD13A4651462846FFF73BFCFF2EBA
:101CF00098BF4FF0000A14D8002EB8D13A4651468A
:101D00002846FFF72FFC3A4649463020FFF71CFCD7
:101D1000B8F1000F11DD0DF1140908F1FF38C844C6
:101D200003E04FF0000A9DE7B046464616F8011959
:101D30003846FFF7EFFBC145F6D115F0100F09D17A
:101D400014F8011B61B125293FF489AC3846FFF72F
:101D5000E1FBF5E73A4651462020FFF7F5FBEFE7B8
:101D6000BB682BB13A6879688A423CBF002199541C
:101D7000386809B0BDE8F08F4FF0FF30F9E70AF19D
:0C1D8000FF3A15F4007FB7D1ACE700BFBC
:101D8C0011121314FFFFFFFFFFFFFFFFFFFFFFFF09
:101D9C00FFFFFFFF00000000000000000000D60164
:101DAC00060100000800000006000000050000000D
:101DBC00070000000000000000E0D7010D0A5541AB
:101DCC005254206578616D706C6520737461727407
:101DDC0065642E0D0A00636D3A25640A000000004C
:101DEC003031323334353637383961626364656685
:101DFC003031323334353637383941424344454635
:081E0C00286E756C6C290000C2
:101E140000000000002000400000000000200040FE
:081E2400000000000090D00353
:040000030000037581
:00000001FF
