:020000022000DC
:1060000000000120756302005D6302005F6302000F
:106010006163020063630200656302000000000028
:1060200000000000000000000000000067630200A4
:1060300069630200000000006B6302006D630200F0
:106040006F6302006F6302003D770200397902003E
:10605000497902006F630200598A02006F630200EF
:106060006F630200298C0200398C02006F6302000A
:106070006F6302006F6302006F6302006F630200D0
:106080006F630200498C02006F6302006F630200BD
:106090006F6302006F6302006F6302006F630200B0
:1060A0006F6302006F6302006F6302006F630200A0
:1060B0006F6302006F630200000000000000000038
:1060C0006F6302006F6302006F6302006F63020080
:1060D0006F6302003D8602006F6302000000000053
:1060E00000000000000000000000000000000000B0
:1060F00000000000000000000000000000000000A0
:10610000000000000000000000000000000000008F
:10611000000000000000000000000000000000007F
:10612000000000000000000000000000000000006F
:10613000000000000000000000000000000000005F
:10614000000000000000000000000000000000004F
:10615000000000000000000000000000000000003F
:10616000000000000000000000000000000000002F
:10617000000000000000000000000000000000001F
:10618000000000000000000000000000000000000F
:1061900000000000000000000000000000000000FF
:1061A00000000000000000000000000000000000EF
:1061B00000000000000000000000000000000000DF
:1061C00000000000000000000000000000000000CF
:1061D00000000000000000000000000000000000BF
:1061E00000000000000000000000000000000000AF
:1061F000000000000000000000000000000000009F
:10620000354936480A1A02D0072291438D4634494F
:1062100034480A1A06D00722914381F309880222E2
:1062200082F3148830483149314A00F044F831484B
:106230003149324A00F03FF831483249324A00F0E1
:106240003AF832483249334A00F035F83248334997
:10625000334A00F030F833483349344A00F02BF821
:1062600033483449344A00F026F83448344900228F
:1062700000F02CF833483449002200F027F8334866
:106280003349091A082902DB002202604160314AC1
:1062900090471F481F49884205D00268043003B464
:1062A000904703BCF7E700208646EC46002000211B
:1062B000294A9047FEE7884207D0521A05D0037852
:1062C00001300B700131013AF9D17047884202D098
:1062D00002700130FAE770470000012000E0002062
:1062E000000001200000012050A002008079002061
:1062F000B8790020D0630200D0630200129502003A
:1063000050A0020080790020807900209095020042
:1063100090950200909502009095020090950200E1
:1063200090950200909502009095020050A0020006
:1063300088A00200B8790020B8790020B879002040
:10634000298100202C8100202C8100202C8100201C
:106350002CA100209D6302000D8D0200FEE7FEE7E8
:10636000FEE7FEE7FEE7FEE7FEE7FEE7FEE7FEE705
:1063700000F002B8FFF7FCBF0F484FF00701884359
:1063800085460E4880470E48016841F4700101605F
:10639000BFF34F8FBFF36F8FFFF732BF09480A4932
:1063A0000A4A884207D0521A05D0037801300B7090
:1063B0000131013AF9D1704700000120D58F020068
:1063C00088ED00E09095020080790020807900201F
:1063D000F0B595B01C46164608460D4601F04DF83E
:1063E0001A9B0D93CDE9086400242346082205A9D1
:1063F00028460A948DF82C400C9401F05BF8079B1A
:106400000293069B03939DF814308DF8114003F01E
:106410000302012A1DD1BDF81440059EC3F3C20337
:10642000C4F383148DF81030A20008230EA9284667
:1064300001F040F8C6F3952608AB0093224602AB64
:106440000EA9304600F0E0FB284601F01AF815B01E
:10645000F0BD022AF8D1BDF81640C3F3C203A40967
:106460008DF810300827082C264628BF08263B4602
:1064700032460EA9284601F01DF8A41B08AB02AA5B
:1064800031460EA8374400F023FC002CEBD1DBE7AB
:10649000014B01221A707047F97900207047000003
:1064A00070B50F4D06460FCD88B06C460FC495E809
:1064B0000F00002E84E80F004FF00603094A0A4837
:1064C000009308BF0022694601F0FCF818B1074AA2
:1064D000432100F083FC064B1E7008B070BD00BF66
:1064E000909502009164020080790020BC95020022
:1064F000B879002007B5044B0093044A4023FFF706
:1065000067FF03B05DF804FB11650200B979002054
:1065100038B50C4B0C4D002018700C4804782D5DDC
:10652000D2B21C464DB1043002F040F8084B1A7844
:1065300012B12378002BFBD038BD0C3001F008FEDF
:10654000F4E700BFF9790020C47F002080790020A3
:10655000B879002008B50848084A0378D35C3BB1F5
:10656000043001F0ADFF0020BDE80840FFF798BF00
:106570000C3001F089FDF6E780790020C47F00200F
:106580000120FFF78DBF000008B5FFF7F9FF0421D8
:10659000034800F0A7FA034B01225A7108BD00BF5F
:1065A0006C95020094790020037813F0040216D051
:1065B00003F00303012B03D0022B09D00120704705
:1065C0000A6800880232C0F3831002440A60F5E7CB
:1065D0000B684288023303EB92130B60EEE7104620
:1065E000704700002DE9F04F044685B0851C00205F
:1065F0000F46904600F06AFC454806683E60D0E9C8
:106600000132134401339B1B824600F21C4600F505
:10661000836900F21447AB421AD30022B8F1000F8D
:106620006FD0052363F3070264F38912DAF80010D0
:10663000DAF808300B4003330D444AF823200020D9
:10664000CAF8005000F044FC012005B0BDE8F08F0E
:106650000121304600F05EFC484600F071FC3846EF
:1066600000F06EFCDAF80400DAF808B0009000EAF6
:106670000B0003300AEB80006946FFF795FF009B93
:1066800050BB0BEA03020AEB820203F1020CD26850
:106690000192013303EA0B0B0AEB8B0B02F00302AE
:1066A000012ACDF800C0DBF80C1022D0022A16D047
:1066B0008346384600F047FC10B1009BCAF804300E
:1066C0005946304600F026FCDAE901231344DAF893
:1066D000002001339B1A9EE70BEA0300C9E7BDF8CF
:1066E00006309B0903334FEA114B0CEB93030093E5
:1066F000DFE7BDF80430C3F383134FEA114B634463
:10670000F5E7062363F3070264F39F528EE700BFA9
:10671000CC7A00200B4B0C48FF2210B59A60002267
:10672000C3F81824C3E90022C3F8142483F82024F2
:1067300000F05CFE044610B9044800F0C5FE204697
:1067400010BD00BFCC7A00207C9502005896020054
:1067500030B50A4C71B10A4A0A49121BD20800230B
:106760009A4201D1002030BD31F82350854202D039
:106770000133F5E7034654F83300F4E714950200BB
:106780006C95020080790020094B013903EBC000B1
:10679000032909D8DFE801F00A0204060420704743
:1067A0000079704740797047002070470220704799
:1067B00014950200034BD3E90030C31A58425841E4
:1067C000704700BFCC7A00202DE9F04385B0FFF779
:1067D000F1FF0646002840F0F7807C4DC5F818040C
:1067E000BFF34F8F6868AC6800902040033005EB22
:1067F00080006946FFF7D8FE009B18B1D5F8182431
:10680000002A5FD004EA0302991C013305EB8202DF
:10681000234005EB8303D268DB68029302F0030395
:10682000022B0192009162D1BDF8063068484FEA10
:106830009318B8F1500FC14628BF4FF0500969F3C3
:106840008F1309F10801ADF8063000F0E7FD0746A7
:10685000002800F0A48000F010FE01A90023082207
:10686000384600F01DFE009924EA01060136B60004
:10687000B14535D95FFA89F97EB3F6B2A9EB0609BD
:10688000214003315FFA89F4B146524E05EB810194
:1068900008234A46384600F003FE36B109F10803E2
:1068A00022463146384600F0FBFD009B08F1030804
:1068B00003EB98030093D5F81834002B4BD1D5F88F
:1068C00010445BE02A689A4204D86A60304605B0FA
:1068D000BDE8F08304EA030088E73E493446D7E781
:1068E0002140033108234A4605EB8101DAE7012BF9
:1068F00055D1BDF804303648C3F38311062928BFAB
:10690000062161F3891302318900ADF8043000F0EB
:1069100085FD0746002842D000F0AFFD0023082285
:1069200001A9384600F0BCFD0026BDF80420C2F3E2
:106930008312B300964203F10803BCD200994A1CAB
:1069400021400331009205EB81010422384600F01A
:10695000A7FD0136E9E7384600F093FDFFF72AFF6F
:1069600080F00100C6B2B1E7E3685B7923B1236828
:1069700039461B6820469847E3681C68002CF3D111
:10698000384600F07EFD204600F0A0FAD5F8183415
:106990000BB9009B6B60002000F09AFADEE7D5F897
:1069A000104454B90C4B0D480D49C01AC0080004DE
:1069B00040F0020000F06EF8D0E7236820469B68A4
:1069C0009847E3681C68ECE700267FE7CC7A002054
:1069D0007C950200D87A0020149502004C950200A4
:1069E000649602002DE9F74F284C80460F469246E8
:1069F00001A9012218469B46D4F80890FFF7F2FD42
:106A000080B3019D0026A91C5E4506EB010233D12F
:106A100000211F4800F05EFA80F310006A1C02EAB1
:106A2000090204EB8202000405EA0903033340EA89
:106A30001840D06014F8232068F3C50204F823201E
:106A400034F8232066F3891224F8232054F82320F5
:106A500067F39F2244F8232002F0F80242F001027B
:106A600004F8232094F820341BB1FFF7ADFE002872
:106A7000FBD103B0BDE8F08F09EA020204EB820209
:106A80005AF82630D3600136BEE700BFCC7A00202A
:106A9000E87E002000231A46FFF7A4BF07B50123B4
:106AA000019201AAFFF79EFF03B05DF804FB07B552
:106AB000CDE9002302236A46FFF794FF03B05DF897
:106AC00004FB7FB5CDE90123089B0393099B049345
:106AD0000A9B059301AA0523FFF784FF07B05DF821
:106AE00004FB000030B50F49D1F8102400231446F0
:106AF0003CB9C468237152B9C1F810042260184629
:106B000030BDE46825799D4206D02468F0E7D2685C
:106B1000116821601060F2E701330A2BE7D14FF0D2
:106B2000FF33ECE7CC7A0020094A38B50123D2F8CC
:106B3000104482F820341D4604B938BDE3685D7105
:106B4000236820465B689847E3681C68F4E700BF49
:106B5000CC7A0020037A052B10B50C460FD0437A6F
:106B600023B1084A0849204600F047FA0749204661
:106B700000F043FA2046BDE8104000F033BA002A86
:106B8000F8D0F3E7AF960200C59D0200D19602004F
:106B9000C38873B504460D4633B1144A00921449B4
:106BA000144A284600F029FA217A05291CD0637A74
:106BB0004BB1A088FFF7E8FD0F4B104953F8202098
:106BC000284600F01AFA227A0D4BA08853F822606A
:106BD0000021FFF7BDFD0B4903463246284602B0AF
:106BE000BDE8704000F009BA02B070BDAF96020077
:106BF000BC960200B49602007C960200C59D02007D
:106C0000E0960200D49602002DE9F04385B01F46BD
:106C10000C9D002306460C46904695F80C902B736D
:106C200029463846FFF7B4FFB8F1060F09D8DFE868
:106C300008F00412181F283340003146284600F09F
:106C4000DCF9002229463846FFF784FF85F80C90CE
:106C500005B0BDE8F08322683146284600F0CDF942
:106C6000EFE7D4E900233146284600F0C6F9E8E70B
:106C7000A36800933146D4E90023284600F0BDF90B
:106C8000DFE7E3680193A36800933146D4E900236A
:106C9000284600F0B2F9D4E723690293E368019330
:106CA000A36800933146D4E90023284600F0A5F9F3
:106CB000C7E76369039323690293E3680193A368B9
:106CC00000933146D4E90023284600F096F9B8E74E
:106CD00008292DE9F84F80460E4617461C463AD83B
:106CE000002593F80C901D7319461046FFF750FFCE
:106CF000DFF884A0DFF884B0AE422ED918F8052062
:106D00005946204600F079F90135082DF4D118498B
:106D1000DFF86CB0204600F070F94FF0000A5645DD
:106D200020D918F80A507E2D03D8284602F060FBBF
:106D300000B92E252A465946204600F05EF90AF190
:106D4000010ABAF1080FEAD1012221463846FFF7BD
:106D500001FF84F80C90BDE8F88F5146204600F002
:106D60004CF9D1E70349204600F047F9E7E700BFB7
:106D7000AA960200A8960200A6960200A09602001B
:106D8000AC96020082B001238DF807309DF80730E1
:106D9000114B1860596044F2010188429A6012D088
:106DA00044F20201884206D1DA60DA6812889A61F8
:106DB000DA685268DA6172B69DF80730002BFBD1B1
:106DC00062B602B070471A611A6992685A611A690C
:106DD00012689A611A69ECE7887F002000B583B0D9
:106DE00002900091019244F2010071466A4600F05F
:106DF00003F803B000BD00002DE9FF4106460F4631
:106E0000154672B6FFF790FEFFF7DEFC0028FBD1B7
:106E10001E4B1F4CE41AE40844F2010324049E4272
:106E200044F0010416D044F202039E4227D12B887D
:106E30006A6818492046FFF73AFE174B1B68DB07C4
:106E400000D500BE2A463946304604B0BDE8F041C0
:106E5000FFF798BFD5F80880404600F05DFB2B682F
:106E6000029701936B680093424603460B49204604
:106E7000FFF727FE0A492046FFF70CFEDDE73A46FA
:106E800008492046FFF70AFED7E700BF1495020025
:106E90004C95020045970200F0ED00E05F9702007C
:106EA000859702009997020072B6024A136801336F
:106EB00013607047A87F0020034A1368013B1360EA
:106EC00003B962B6704700BFA87F0020FFF7ECBF90
:106ED000FFF7F2BF50E8002F0B4640E8003C9CF063
:106EE000000FF7D11046704750E8003F43EA010217
:106EF00040E8002C9CF0000FF6D11046704750E897
:106F0000002F02EA010340E8003C9CF0000FF6D19C
:106F10001046704750E8003F03EB010240E8002CA8
:106F20009CF0000FF6D11046704750E8003FA3EBED
:106F3000010240E8002C9CF0000FF6D1104670478B
:106F40000121FFF7D1BF0021FFF7D9BF10B590B1E4
:106F5000D0E9012301689B1ADBB20A60013BDBB276
:106F6000FF2B026802D10020107110BD11684C1C6B
:106F700014600B70F2E70E20F7E738B504460020E6
:106F8000FFF7A4FF226863681168994213D9481E6D
:106F9000106011F8015CE368218A01FB0535A368E4
:106FA00011791B1ADBB2994200D213710020FFF74E
:106FB0008FFF284638BD0025F8E738B50546002084
:106FC0000C46FFF783FF2A681368591C1160E968B3
:106FD000641A298AB4FBF1F41C700020BDE8384023
:106FE000FFF776BF826810B504462AB1436901688D
:106FF000006998470023A36010BD0EB403B5039940
:1070000021B104AB01AA019300F074F802B05DF85D
:1070100004EB03B070470A2938B504460D4602D187
:107020000D21FFF7F8FFA3682268591CA160D55411
:10703000D4E901329A4204D32046BDE83840FFF734
:10704000D1BF38BD2DE9F84F9946DDE90A4317460F
:10705000824688460A460126BA420FD24E4538BFBC
:107060004E4613F0010B01D164B900240125B9F19A
:10707000010F1AD909F1FF397D43F8E7B2FBF7F2A6
:107080000136E9E79B070ED5B9F1000F0CBF30259B
:107090002025A642EAD2013C29465046FFF7BBFF15
:1070A000002CF6D1E1E72025F3E7B8FBF5F39F428A
:1070B000E2D9DFF83C90B8FBF5F3504619F803101D
:1070C00005FB1388FFF7A7FFB5FBF7F3BD4207D217
:1070D000BBF1000F02D00CB1A64203D3BDE8F88F7C
:1070E0001D46E8E720215046013CFFF794FFF2E7F8
:1070F000B19702002DE9F74F05461746884600294B
:1071000000F0308118F8011B49B92B7B002B00F0EF
:107110002981284603B0BDE8F04FFFF763BF25295A
:1071200040F0C080002698F800302D2B424608F130
:10713000010823D0302B24D02B2B25D000242A2B40
:1071400002F1010123D13B681A1D1B683A601C44FF
:107150000A4613782E2B26D101324FF00009104633
:1071600010F8011BA1F1300CBCF1090F1DD80A2346
:1071700003FB0913A3F130090246F0E746F00106CC
:10718000D1E746F00206CEE746F00406CBE711F859
:10719000013CA3F130000928DBD80A2202FB0434A9
:1071A000303C0A46CBE74FF0000912F8011B01F012
:1071B000FB0068289046F8D069290ED04AD8582993
:1071C00064D006D825296DD098F80030002B99D1CD
:1071D0009BE7632962D06429F6D13A68D2F800A00F
:1071E000111D8AEAEA723960A2EBEA724FF0010BD4
:1071F000092A5BDCCB4538BFCB462CB1BAF1000F76
:1072000001DB720700D5013CB30702D5B9F1000FCD
:1072100004D0F00702D4002C4ED10024BAF1000FA4
:1072200052DACAF1000A2D212846FFF7F4FE06F0D3
:107230000302022A05D1B9F1000F02D1002C47D177
:107240000024CDE900464B460A2251462846FFF766
:10725000F9FEB9E773294CD014D87029B4D13B6832
:107260001A1D3A60302128461C68FFF7D4FE7821A9
:107270002846FFF7D0FE00220823CDE90032214640
:107280001022E3E775292BD078299DD139680A1D92
:107290003A60CDE900464B46102228E03B681A1DB3
:1072A00019783A602846FFF7B6FE8DE70A230BF1FE
:1072B000010BB2FBF3F29BE7A345AFD22021284696
:1072C000013CFFF7A8FEA6E77107B0D52B21ABE77D
:1072D000A345B6D230212846013CFFF79CFEADE71E
:1072E0003968CDE900460A1D3A604B460A22096812
:1072F000ACE73B681A1D3A6016F00106D3F800A00F
:1073000020D1BAF1000F03D0504602F0D2F8064661
:10731000B44200D9C4B90AF1FF3A1EE0284601364A
:10732000FFF779FE1AF806100029F7D1A642BFF43C
:107330004BAF002C3FF448AF20212846013CFFF71B
:107340006AFEF3E70026EDE720212846013CFFF71F
:1073500062FEDDE72846FFF75EFE1AF8011F0029EE
:10736000F8D131E703B0BDE8F08F2DE9F047B0F870
:1073700006904479D2F800A09DF8208009FB04F41F
:10738000043C06460AEB0300A0420F4688BFA4EB6C
:10739000030A191DC2F800A0B1FBF9F509FB15118C
:1073A0004DB9A9EB0104544528BF5446BAF1000F6A
:1073B00004D1BDE8F0873668013DF1E704317B195F
:1073C00070182246B8F1000F0ED001461846AAEBFD
:1073D000040A02F012F8D145254436684C464FF0B5
:1073E000000128BF5446E1E71946F0E7FFF7AEBDBC
:1073F000F8B546790146721E0546002393422D6872
:1074000003D30024A64202D8F8BD0133F6E70F6883
:107410002846FFF7D2FD01343946F3E72DE9F8435A
:10742000068ACD1C0746FFF7A8FD043E35440446F6
:10743000B5FBF6F5F0B14FF48073EDB28380C680F2
:10744000013D076081464FF00008A84512D238463A
:10745000FFF793FD064648B163790133637108F184
:107460000108C9F8000007608146EEE72046FFF7F3
:10747000BFFF34462046BDE8F88301210430FFF702
:1074800049BD10B5012104460430FFF74EFD10F050
:10749000FF0F04D12046BDE81040FFF7A9BF10BD83
:1074A0001FB503920022009203AAFFF75EFF05B00A
:1074B0005DF804FB1FB503920122009203AAFFF7B7
:1074C00054FF05B05DF804FB836800225A609A609F
:1074D000C3E90422DA601A607047000010B50D4954
:1074E000A1F58C72914201D800200FE08B1ADB10BD
:1074F00003EBD3735B1002EBC30452F833308342C7
:1075000005D802D204F10802ECE7606810BD2146FC
:10751000E8E700BFEC98020008B5FFF7DFFF024B79
:10752000002808BF184608BDC19702001FB50378A0
:107530008DF800308388ADF8043083688DF806300C
:10754000C3688DF807300369029343690393054AC2
:10755000054B684653F8213052F82110984705B082
:107560005DF804FBAC7F0020B47F0020024B4FF499
:10757000807043F001031847A09C02002DE9F047FA
:10758000174690F80080324A42F82870314A42F893
:1075900028304B7B81460C4663B3086849688200FB
:1075A0008B0002F1A04203F1A04340F20C65C2F847
:1075B00000570126C3F800574FF0A04506FA00F027
:1075C00006FA01F1C5F80805C5F8081540F20D6185
:1075D000C2F80017C3F80017FFF7C8FF4FF0000A02
:1075E000D5F81025636822FA03F3DB070ED5BAF14C
:1075F000000F1ED1002F4346174A214608BF3A46C6
:1076000009F10400BDE8F04700F0A6B9236806FAC6
:1076100003F3C5F80C35FFF7A9FF236806FA03F357
:10762000C5F808350AF1010AFFF7A0FFBAF1090F02
:10763000D6D1636801254FF0A04605FA03F3C6F8DA
:107640000C35FFF793FF63689D40C6F80855D1E7F6
:10765000B47F0020AC7F00202D7502001FB5037899
:107660008DF800304368019383688DF80830C36853
:107670000393054A054B684653F8213052F8211010
:10768000984705B05DF804FBBC7F0020C07F002058
:107690001FB503788DF800304368019383688DF837
:1076A0000830C3680393054A054B684653F82130F8
:1076B00052F82110984705B05DF804FBBC7F00200C
:1076C000C07F0020F0B5184B077891F81DE043F813
:1076D0002720164B16460A6943F82720144B03F857
:1076E00007E00C4684460FCC89B06D460FC594E880
:1076F0000F0085E80F000497BEF1000F0AD0002E9E
:107700000C4A694608BF32460CF1040000F012FE34
:1077100009B0F0BD002E084A694608BF32460CF198
:107720000C0000F0F7FBF3E7C07F0020BC7F0020D7
:10773000C47F00205D76020091760200014B1B6839
:10774000184700BFC87F002038B50B4B98420D4644
:1077500001D0002038BD0020FFF7B8FB074B1C7993
:1077600014B901221D601A710020FFF7B1FB002C33
:10777000EFD01120EEE700BF00200040C87F0020BE
:10778000034B984201BF034B00221A601A717047E5
:1077900000200040C87F00200023435082B043589F
:1077A0000193019B02B070470B7B032B2DD8DFE8C0
:1077B00003F025291D028A68154B9A4204D1D0F89E
:1077C0004C350A699A4209D18A6840F202239A42EA
:1077D0001BD1D0F84C354A699A4216D000230622B4
:1077E000C0F80035C0F8002518467047D0F84C3571
:1077F0000A699A42F2D1D0F83C35ECE7D0F84C3522
:107800000A69E9E7D0F83C35FAE70120704700BF84
:1078100000020400F0B5D0F8243187B004460D46CC
:10782000ABB14FF49271FFF7B7FFD0F8043173B9E1
:10783000AB68C0F808330223AB60AB68C0F8043310
:1078400001230362436185F82E3007B0F0BDD4F800
:1078500004316BB34FF48271204605F10C07FFF73A
:107860009BFF0FCF01AE0FC63B68336095F82E30FB
:107870003BB929462046FFF797FF80F0010085F8C5
:107880002E004FF4B0712046FFF786FF4FF4AE7123
:10789000FFF782FF95F8303013B195F82E30CBB159
:1078A0000023C4F80032AB60224BC4F8083311E067
:1078B0004FF4A4712046FFF76FFF2B7BEBB905F166
:1078C0000C070FCF01AE0FC63B68336095F8303020
:1078D000002BE6D0D4F8C434C4F8C4349A071ED5BB
:1078E00001238DF8003095F830300BB985F82F3032
:1078F000D5E9003168469847A7E74FF40073C4F80C
:10790000003240F20223AB6003F1CE73C4F80833B7
:10791000AB68C4F804330123A360236295E713F036
:10792000050F01D00223DCE795F82E30002BD8D0CC
:107930000423D6E702029C0101490248FFF76ABF0F
:10794000D07F00200030004002494FF04020FFF778
:1079500061BF00BF048000202DE9F84F0479344D49
:107960004FF0340808FB04F805EB08069B4696F830
:107970002D3081460F469246002B54D12D4B006886
:1079800053F82410FFF7E0FE00284ED139687B7BC6
:1079900086F8323001F5E0724FF0A043B060C6F8CF
:1079A00004B086F82F0086F8300040F20C6645F8E7
:1079B00008A043F822607A6802F5E07C43F82C6066
:1079C000D9F80030C3F80815C3F80C25BA68C3F815
:1079D0002425BAF1000F1ED01B0B59B200293A7BA7
:1079E000B4BF154E01F16046DBB2B8BF03F00F071C
:1079F0004FEA4212A8BF06F56146D2B2B4BFF255B3
:107A000086F8002303F01F03012202FA03F3490959
:107A10000A4A42F82130342303FB0454012384F83A
:107A20002D30BDE8F88F0820FBE71120F9E700BFF3
:107A3000D07F0020AC9C020014ED00E000E100E0EB
:107A4000026803790621C2F80015044A342101FBBB
:107A50000323022283F82D20704700BFD07F00202F
:107A60002DE9F843A54F90F804800468342606FBFE
:107A70000876002386F82E30CB6803F06043B3F11C
:107A8000005F0D46914603D010263046BDE8F883CE
:107A90009B4BC4F8083396F82F3023B1B368C4F871
:107AA00004331126F1E712F0140F0CBF0123002359
:107AB00086F82F308E46BEE80F0006F10C0CACE8BD
:107AC0000F00DEF80030CCF80030C9F3001386F860
:107AD00030306B78C4F888354FF482712046FFF758
:107AE0005BFE4FF49271FFF757FE19F0010318BFC8
:107AF0000123C4F8503519F0020318BF0123C4F85C
:107B000040352B78032B00F2CE80DFE803F08EB6F1
:107B10006F022B6903F06043B3F1005FB4D14FF4FF
:107B20008073EA68C4F800326B68C4F844254FF4E7
:107B3000A871C4F84835FFF72FFE4FF4B071FFF776
:107B40002BFE4FF4A471FFF727FE01232362A360ED
:107B5000D4F85031002BFBD04FF4A8712046FFF72A
:107B60001BFEAB682A69C4F84425C4F848353423A1
:107B700003FB0873634A9A604FF48273082200265D
:107B800019F0080F04D1297803291CBF0121A15045
:107B9000342202FB08F2B918BA58002A40F0888053
:107BA000012223441968002900F08F803421D4F881
:107BB000C434C4F8C43401FB0872002082F82F00DA
:107BC000002B00F0918013F0010F14BF4FF4024618
:107BD000032648F2012213F0020F18BF164613F0D5
:107BE000040F48F2022318BF1E464EE76B68EA688E
:107BF000C4F84425C4F848352B6903F06042B2F15B
:107C0000005F7FF441AFAA68C4F834354FF4845361
:107C1000C4F83825C4F80032342303FB087340F25B
:107C200002229A6001232362A6E76B68EA68C4F81F
:107C3000442519F0200FC4F848354FF0340310D014
:107C400003FB08734FF48072C4F800222D4A9A6037
:107C50004FF4A471FFF7A0FD4FF4A4730122226238
:107C60008CE74FF4007203FB0873C4F8002240F263
:107C700002229A604FF48273F0E76B68EA68C4F8F6
:107C80003425C4F838354FF48053C4F80032342317
:107C900003FB087340F202229A6001232362002250
:107CA0004FF482736BE74FF482730822072667E76D
:107CB00019F0040F1CBF4FF400738B60342303FBD7
:107CC0000877BB68C4F80433DFE6D4F82411002930
:107CD0003FF468AF4FF492712046FFF75DFD4FF41B
:107CE0008273226262615CE708FB01712046FFF744
:107CF0005BFD002808BF0326C7E600BFD07F002039
:107D000002029C010002040010B586B00024CDE9F7
:107D100002349DF820308DF80510A342CDE90424EB
:107D200001A914BF202222468DF80440FFF798FED7
:107D300006B010BD10B586B00124029300238DF863
:107D40000510CDE9033201A91A468DF804400593C8
:107D5000FFF786FE06B010BD0023435082B04358A3
:107D60000193019B02B070470A4610B54FF48E7123
:107D7000FFF7F2FF136A9168C95C136A013313625B
:107D8000C0F81C1510BD8B690A4610B54FF48471FC
:107D900023B9FFF7E1FFD0F8183510BDFFF7DCFF7E
:107DA000536AD168D0F81805C854536A0133536236
:107DB000F3E700001FB501238DF80030044BCDE937
:107DC0000110D3E900126846904705B05DF804FB46
:107DD0003880002030B54D4AD2F8043313F4007FC8
:107DE00085B015464FD0D2F82431002B4BD04FF43C
:107DF00092711046FFF7B0FF4FF40173C2F80833D9
:107E0000434B93F8291009B9012151603F490222DF
:107E10008DF80020D1F88024C1F8802403929A695B
:107E20000292DA6801920022C3E906226846D3E989
:107E3000001290473548D0F81C315BB134494A698B
:107E40000B6A9A420A464BD991F82830002B47D149
:107E5000FFF78AFF2D4AD2F8443193B14FF4A27153
:107E60001046FFF779FF2A4B93F8291009B1012139
:107E700011609A692AB100229A61586AD968FFF79D
:107E800099FF05B030BDD5F804335B07D2D5D5F8DE
:107E90000831002BCED01E4C1C482146FFF773FF43
:107EA000636AA2699A422346C4D1E269E1684AB191
:107EB0002369E3600023606AA261E3616362FFF704
:107EC00079FFB7E794F829200AB901226A600F4ABE
:107ED0004FF40170C2F8080300229A61586AEEE775
:107EE0004FF48E710948FFF737FF5369002BB1D06B
:107EF00051690291002391688DF80030019153611E
:107F00006846D2E900139847A4E700BF002000406C
:107F1000388000202DE9F843564F047991462C22F1
:107F200002FB0472064692F82A200D46002A40F011
:107F30009A8051490068FFF707FC8046002840F00E
:107F4000958029683368481C0BD04FF0A04001226F
:107F50008A40C0F8082501F5E0724FF0030C40F8A4
:107F600022C06868421C1FBF00F5E0724FF0A04CB1
:107F70004FF0000E4CF822E0AA6995F814C0C3F83F
:107F800024256A7DBCF1010F4CEA0202C3F86C257E
:107F9000C3F81405C3F80C151DD1AA68511C1FBFE6
:107FA00002F5E0714FF0A0404FF0000C40F821C006
:107FB000E968481C0BD04FF0A04C01208840CCF859
:107FC000080501F5E0704FF0030E4CF820E0C3F80F
:107FD0000815C3F810252C236343FA18C2F804903F
:107FE0002A69FA50B9F1000F2AD04FF48E71306827
:107FF0002D7FFFF7B1FE30684FF4A271FFF7ACFEA2
:1080000032681E4BC2F80433120B51B20029A8BFCC
:1080100001F160404FEA4513BABF194802F00F055D
:1080200000F56140DBB2B4BF435580F8003302F085
:108030001F02012303FA02F24909124B43F82120DF
:1080400033680422C3F800252C2303FB04730022A9
:10805000C3E9062283F829205A61012283F82A20E5
:108060004046BDE8F8834FF00808F9E74FF01108E3
:10807000F6E700BF38800020D57D020080000200B6
:1080800014ED00E000E100E0F8B5047900682D4D42
:108090000023C0F800352C2303FB04535B6873B145
:1080A000294BC0F80833020B53B201215B0902F0DF
:1080B0001F0201FA02F22033244941F82320D0F8AC
:1080C0000C65D0F81415D0F80835D0F810254FF00D
:1080D000FF37BE42C0F8147518BF06F5E076C0F849
:1080E0000C75C0F80875C0F810751EBF4FF0A0479A
:1080F0004FF0020C47F826C04E1C1FBF4FF0A046A1
:1081000001F5E071022746F82170511C1FBF4FF0A6
:10811000A04102F5E072022641F822605A1C1FBFFE
:1081200003F5E0734FF0A042022142F82310FFF75D
:1081300027FB2C2303FB0454002384F82A306360BC
:10814000F8BD00BF388000208402020000E100E09A
:108150002DE9F84F224F06794FF02C0909FB0674E0
:1081600080466569002D38D16261A16025624FF4B7
:108170008E71006884F82850FFF7EEFDD8F80000F3
:10818000012383602146FFF7EFFD6368A1469BB999
:10819000D8F800A0D4F814B0236A9B4512D8D8F8B8
:1081A0000020D2F81C31002BFBD00123D3602C23FC
:1081B00003FB067300225A612846BDE8F88F94F845
:1081C000283043B9DAF81C31002BF8D04946504624
:1081D000FFF7CAFDE0E70F25E9E71125ECE700BF4F
:1081E000388000200023435082B043580193019B04
:1081F00002B070471FB501238DF80030044BCDE964
:108200000110D3E900126846904705B05DF804FB01
:10821000648000207FB5454AD2F82461002E63D0E7
:1082200010464FF49271FFF7DDFF02238DF8003006
:10823000D2F88034C2F880340393D2F83C350293EC
:108240003B4BDA6801920022C3E906226846D3E973
:1082500000129047354AD2F844317BB14FF4A271F5
:108260001046FFF7BFFF324B996939B10021C3E9CE
:108270000611D968D2F83C05FFF7BCFF2B4AD2F8AB
:108280002031B3B14FF490711046FFF7ABFF0123DB
:10829000D360274B596961B1D2F84C150291002285
:1082A00099688DF8002001915A616846D3E900125F
:1082B00090471E4AD2F85831A3B14FF4AC71104622
:1082C000FFF790FF1A4B596961B1D2F84C15029132
:1082D000002299688DF8002001915A616846D3E91F
:1082E0000012904704B070BDD2F81031002BB1D00D
:1082F0004FF488711046FFF775FF0D4BD2F83C051F
:1083000099698842A6D1DC69D96864B1D2F8005273
:1083100025F02005C2F800521A699C61DA60DE611E
:10832000FFF768FF96E79C61FAE700BF0020004076
:10833000648000202DE9F8435C4F067991462422A1
:1083400002FB0672044692F820200D46002A40F0F7
:10835000A78057490068FFF7F7F98046002840F0EA
:10836000A28029682368481C0BD04FF0A04001224E
:108370008A40C0F8082501F5E0724FF0030C40F880
:1083800022C06868421C1FBF00F5E0724FF0A04C8D
:108390004FF0000E4CF822E0AA6995F814C0C3F81B
:1083A00024256A7DBCF1010F4CEA0202C3F86C255A
:1083B000C3F80C15C3F814051DD1AA68511C1FBFC2
:1083C00002F5E0714FF0A0404FF0000C40F821C0E2
:1083D000E968481C0BD04FF0A04C01208840CCF835
:1083E000080501F5E0704FF0030E4CF820E0C3F8EB
:1083F0000815C3F8102524237343FA18C2F8049013
:108400002A69FA50B9F1000F39D04FF48871206809
:108410002D7FFFF7E7FE4FF490712068FFF7E2FE33
:108420004FF492712068FFF7DDFE4FF4A2712068CF
:10843000FFF7D8FE20684FF4AC71FFF7D3FE226837
:108440001C4BC2F80433120B51B20029A8BF01F132
:1084500060404FEA4513BABF174802F00F0500F518
:108460006140DBB2B4BF435580F8003302F01F0215
:10847000012303FA02F24909104B43F82120236833
:108480000822C3F80025242303FB06730022C3E956
:1084900006225A61012283F820204046BDE8F88375
:1084A0004FF00808F9E74FF01108F6E76480002064
:1084B000158202001003420014ED00E000E100E02C
:1084C000F8B5374D0479242303FB045306465B6853
:1084D000006873B1334BC0F80833020B53B201216B
:1084E0005B0902F01F0201FA02F220332E4941F823
:1084F0002320D0F80032012223F02003C0F80032FC
:108500004FF4AC714260FFF76DFE3068C260D0F886
:108510005831002BFBD00023C0F80035D0F80C6593
:10852000D0F81415D0F80835D0F810254FF0FF37E3
:10853000BE42C0F80C7518BF06F5E076C0F8147599
:10854000C0F80875C0F810751EBF4FF0A0474FF077
:10855000020C47F826C04E1C1FBF4FF0A04601F585
:10856000E071022746F82170511C1FBF4FF0A04157
:1085700002F5E072022641F822605A1C1FBF03F583
:10858000E0734FF0A042022142F82310FFF7F8F801
:10859000242303FB0454002384F820306360F8BDD7
:1085A000648000201003420000E100E001F060431D
:1085B000B3F1005F2DE9F041074638D11E4B067933
:1085C000242505FB063598466C69002C31D16A617B
:1085D000A96000684FF49071FFF704FE4FF4AC718E
:1085E0003868FFF7FFFD3B686A69A968C3F844155E
:1085F000C3F8482501229A606A68AAB9D3F82021F5
:10860000D3F858411AB9002CF8D00F2407E0002CF9
:10861000FBD10122DA60D3F85821002AFBD02423B1
:1086200003FB0686002373612046BDE8F081102419
:10863000FAE71124F8E700BF64800020F0B5394B59
:10864000394C1A6885B07AB100221A601B68009311
:10865000009B637943F0080303F01202122A63714E
:1086600004BF43F020036371304B1A687AB10022D3
:108670001A601B680193019B637943F0040303F0C4
:108680001102112A637104BF43F020036371284B68
:108690001A68B2B100251D601B680293029B254B2E
:1086A00025480422C3F808232946C3F80055236847
:1086B000984723682148294698470123237105B02C
:1086C000F0BD637903F00F020F2A08D0D80701D458
:1086D000190704D462799207F1D45B07EFD5637967
:1086E000266803F0F30313F0200708D023F03003CB
:1086F00043F01003637101210020B047DFE70E4A09
:1087000092E8030002AD85E8030012E9030043F09C
:10871000100382E80300C4E902776371012128464F
:10872000EBE700BF14510240888000200451024052
:1087300008510240005002409880002090800020A4
:1087400000F1804000F5C040002382B00360036860
:108750000193019B02B07047800000F1A040D0F867
:10876000003723F44033C0F80037D0F8003743EA2D
:108770000141C0F800177047054B4FF0FF32072842
:1087800043F8202084BF1B1883F84C20704700BF9B
:10879000A080002010B5174C94F85D3043BB04F165
:1087A00034032021FF22013911F0FF0103F8012BCE
:1087B000F9D1C8B2FFF7E0FF01310D29F9D1042248
:1087C00000210D4800F042FE0C4BC02283F8062326
:1087D00040221A604FF4BE70FFF7B2FF084B4FF013
:1087E0000042C3F80423012384F85D30002010BD4B
:1087F0000820FCE7A0800020F980002000E100E0D4
:108800000060004030B52E4B1A1892F93440013404
:1088100053D18C78002C4CD01C46002254F8045BB9
:10882000013541D11C1884F83420002443F822403B
:10883000920002F1804202F5C0420B78D2F8105546
:108840004C7825F498151B04240525F4F85504F4F8
:10885000801403F44033C2F8105523430402D2F8C5
:10886000105504F4F85423432B43C2F810354A78CA
:108870000123012A4FF0A04203FA00F30CBFC2F813
:108880000835C2F80C3500F5E073032142F82310D7
:10889000C2080C49012300F0070003FA00F08B5CCA
:1088A00018438854002003E00132082AB6D104207E
:1088B00030BDFE2382F83430D9E70820F8E700BF46
:1088C000A0800020F98000204FF0A0410122D1F8C3
:1088D000043502FA00F020EA03020340C1F808253B
:1088E000C1F80C3570470000F0B5374B1C1894F9EF
:1088F0003440002C1C4664DA8D78C5F34005002D09
:108900000BBF082300230D260826B34201D1042003
:10891000F0BD54F8237001373FD1261844F82320C6
:1089200086F8343015B9E21882F84C008A78550779
:1089300013D4D60733D5820002F1A042D2F80057F3
:1089400025F00205C2F80057204EC50800F00707C1
:108950000122BA40775D3A4372558A780D7812F059
:10896000020225D09B0003F1804303F5C0430202BD
:10897000D3F8101521F4473121F44071C3F81015D4
:108980002D04D3F8101502F4F85205F440352A43AB
:108990000A43C3F810250020BAE70133B5E74D7844
:1089A00000F5E0724FF0A046AD0046F82250CBE74C
:1089B000083B234493F8541041EA851583F854503A
:1089C000E9E70820A4E700BFA0800020F98000208C
:1089D00038B51F4C251895F93420072A17DD224495
:1089E00092F84C10890903290CD14FF0A043D3F819
:1089F0001035C34013F0010F08BF0221BDE8384015
:108A0000FFF7AABE012914BF03210221F6E7D3B262
:108A1000072B1CD8930003F1804303F5C043D3F820
:108A2000100540F00100C3F8100502F1400080007D
:108A300080B2FFF785FE51B195F9343054F82330F8
:108A40002BB1012303FA02F2024BC3F8042338BD11
:108A5000A0800020006000402DE9F04F85B0002488
:108A60005A4D01944FF48072012102F1804303F5C5
:108A7000C04390B21B68012B06D1D5F804330B42DA
:108A800002D0FFF75DFE0C430432B2F5907F4FEA4F
:108A90004101EAD14E4B1B68012B0AD14FF4BE7045
:108AA000FFF74EFE4FF0A04344F00044D3F81035DA
:108AB000019314F0FF0F1AD0464F002501263442CF
:108AC00010D0AB0003F1804303F5C043D3F8100589
:108AD000D3F8101557F8253023B1C1F30141C0F385
:108AE000042098470135082D4FEA4606E7D1002CAF
:108AF00064DA00224FF0FF33CDE90223354D012720
:108B00004FF0000A344E54464FF0A04816F9012B9E
:108B1000531C46D0D2B222F0C0094FEAD90104A8B2
:108B2000084402F0070310F804CC07FA03F31CEA28
:108B3000030F36D005EB090C92099CF934C055F8A7
:108B40002CB0BBF1000F0AD1032A2AD10DF1080E77
:108B50001EF801C04CEA030C0EF801C001E0032A24
:108B6000F4D009F5E07110F80C0C58F821101842F7
:108B7000C1F3014105D0022913D1032A0BD11146BB
:108B800004E003290DD1032A05D102214846FFF74D
:108B9000E3FD0134E4B2BBF1000F02D011464846B8
:108BA000D8470AF1010ABAF1050FAFD134B14FF03D
:108BB000A043019AD3F81035934202D105B0BDE825
:108BC000F08F0193029B03939AE700BF006000407F
:108BD0007C610040A0800020F48000202DE9F74354
:108BE000002406460F4600F5A0754FF48038A146D4
:108BF0002B688BB1D6F8043308FA04F21A420BD072
:108C0000C5F800902B680193A00000F5A070019BAF
:108C100080B2D7E9003198470134042C05F10405EE
:108C2000E6D103B0BDE8F08301490248FFF7D6BFA3
:108C3000008100200090004001490248FFF7CEBFAC
:108C40000C81002000A00040024B034A1B68106802
:108C5000184700BF2081002018810020024A01230C
:108C60001370024A13707047258100202481002070
:108C700008B51120FFF728FE01220449202000F04A
:108C800029FB034B01221A7008BD00BF248100207C
:108C90002581002008B50948094B0A49C01AC008B7
:108CA000000440F00300FDF7F5FE074A13780A3B85
:108CB0001370064B01221A7008BD00BF4C950200CC
:108CC00014950200DB9C02009C7900202681002084
:108CD00008B50948094B0A49C01AC008000440F009
:108CE0000300FDF7D7FE074A13780A331370064BCB
:108CF00001221A7008BD00BF4C95020014950200B5
:108D0000D59C02009C790020268100202DE9F043AB
:108D10004FF4804187B00020FDF7FCFC18B17A4A7F
:108D2000FB21FEF75BF8FDF72FFC784C784B794977
:108D3000E41AE408240444F003042046FDF7AAFEE4
:108D4000FDF742FD0028FBD1FFF724FD20B16E4A5C
:108D500040F20511FEF742F80123ADF80C3003A9EB
:108D6000002311208DF80E30FFF74CFD20B1664A2C
:108D70004FF48571FEF732F840F20113ADF8103070
:108D80009DF81230644A23F0070304A90C208DF8E3
:108D90001230FFF7A9FD20B15B4A4FF48971FEF74D
:108DA0001DF801210C20FFF713FE40F20233ADF84D
:108DB00014309DF81630594A23F0070305A90D20F9
:108DC0008DF81630FFF790FD20B14F4A40F219118F
:108DD000FEF704F8524A05A90E20FFF785FD20B1E1
:108DE000494A4FF48D71FDF7F9FF4E4A05A90F204E
:108DF000FFF77AFD20B1444A40F21B11FDF7EEFF68
:108E000001210D20FFF7E4FD01210E20FFF7E0FD19
:108E100001210F20FFF7DCFD00F01EFA4249204639
:108E2000FDF738FEFDF7D0FC0028FBD13F49204676
:108E3000FDF730FEFDF7C8FC0028FBD10122694692
:108E40001F2000F047FA9DF800203949394EDFF81D
:108E50000C912046FDF722FE9DF800303649374A36
:108E600003F03F0003F0C003402B0CBF13460B463A
:108E7000334A012818BF0A4632492046FDF717FE3B
:108E8000B0463378EBB199F80050012D32D1002370
:108E90002A4601A921208DF804308DF8083000F011
:108EA00019FA2A4602A9232000F014FA9DF8083086
:108EB0009DF8042024492046FDF7F9FD002388F899
:108EC0000030224F3B7883B1214D22492A78204639
:108ED000FDF7E4FD2B78502B11D95A232B702978FC
:108EE000A32000F0D7F900233B70FDF76DFC0028AC
:108EF000FBD1C6E718492046FDF7CCFDDEE7092B7C
:108F0000EDD80123EAE700BFE19C02004C95020086
:108F100014950200739D0200718C0200D18C020036
:108F2000958C02005D8C0200889D02008C9D0200E1
:108F3000969D0200258100206C9D0200659D020027
:108F4000A99D0200BD9D0200C89D0200268100204F
:108F50009C790020EE9D0200E39D02002481002008
:108F60000C4B1B78062B10D10B4B1B681A070CD12E
:108F70000A4B186800F0F003302B08D000F0E00036
:108F8000A0F140035842584170470020704701202B
:108F9000704700BFE00F00F0E40F00F0E80F00F0B2
:108FA000094B1B78062B0CD1084B1B681A0708D1FC
:108FB000074B186800F0F000A0F130035842584108
:108FC00070470020704700BFE00F00F0E40F00F092
:108FD000E80F00F008B5FFF7C3FF28B17D4B7E4ACC
:108FE0001B68C3F304231360FFF7DAFF10B17B4B58
:108FF0007B4A1A60FFF7B4FF28B17A4B7A4A1B68A4
:10900000C3F342331360FFF7CBFF20B1774AD36835
:1090100023F08073D360FFF7A3FF40B14FF080438C
:109020000022C3F80C21C3F81021C3F83825FFF73C
:10903000B7FF10B16E4B03221A60FFF7B1FF40B1CA
:109040006C4B05221A6001229A6700229A603F2227
:109050005A60694B1B78062B50D1684B1B68190767
:109060004CD1674B1B6803F0F003502B46D14FF0F7
:109070008052644BD2F80414C3F82015D2F80814B7
:10908000C3F82415D2F80C14C3F82815D2F810141C
:10909000C3F82C15D2F81414C3F83015D2F81814EC
:1090A000C3F83415D2F81C14C3F84015D2F82014B4
:1090B000C3F84415D2F82414C3F84815D2F828147C
:1090C000C3F84C15D2F82C14C3F85015D2F830144C
:1090D000C3F85415D2F83414C3F86015D2F8381414
:1090E000C3F86415D2F83C14C3F86815D2F84014DC
:1090F000C3F86C15D2F84424C3F87025FFF730FF8D
:1091000028B1414B414A1B6803F04F031360FFF73E
:1091100027FF48B14FF08043D3F80024D20744BF63
:109120006FF00102C3F80024394B1B68062B08D1ED
:10913000384B1B68062B01BF374A136843F4806322
:109140001360364AD2F8883043F47003C2F888308E
:10915000BFF34F8FBFF36F8F4FF01023D3F8002270
:10916000002A03DBD3F80432002B2FDA2C4B012228
:10917000C3F80425D3F80024002AFBD04FF01022B6
:109180001521C2F80012D3F80024002AFBD04FF0BA
:1091900010231522C3F80422214B1A46D3F80014D9
:1091A0000029FBD00021C3F80415D2F80034002BAD
:1091B000FBD0BFF34F8F19491A4BCA6802F4E06223
:1091C0001343CB60BFF34F8F00BFFDE7164B174A29
:1091D0001A6008BD240300104035014074C00740E8
:1091E0000DF0ADBA440200103C050040F0ED00E087
:1091F000A005004010560040E00F00F0E40F00F022
:10920000E80F00F000C0004058020010E40E0040DB
:1092100030010010340100103C17004000ED00E068
:1092200000E001400400FA05A07900200090D0037E
:1092300003784BB90379032B06D8DFE803F0020665
:109240000602034B01221A707047024BFAE700BF77
:1092500028810020278100201FB51B211A22CDE97B
:1092600000124FF0CC72002302926946064A07486A
:109270000393FEF783F9044610B90548FEF7E0FBB7
:10928000204604B010BD00BF31920200009E0200D3
:10929000049E02001FB500238DF80C008DF80D1000
:1092A000009303AA022365210848FEF72DFD38B973
:1092B000074A42F21073117829B9013BFBD10D2006
:1092C00005B05DF804FB00231370F9E7049E02006B
:1092D0002881002030B585B000230C4615468DF856
:1092E0000F0000930DF10F02012365211148FEF7D5
:1092F0000BFD38B9104A42F21073117839B9013BAD
:10930000FBD10D2005B030BD00231370FAE7002318
:1093100013706521EBB222460648FEF70BFD0028CC
:10932000F0D1064A42F2107311780029ECD1013BCA
:10933000FAD1E6E7049E0200288100202781002060
:109340007F2805D8034B185C034B5B5C18407047C3
:1093500000207047109E0200909E0200A0F1610361
:10936000192B98BF20387047A0F14103192B98BFE3
:10937000203070477F2805D8034B185C034B5B5C9B
:109380001840704700207047109E0200909E020017
:10939000A0F16103192B98BF20387047A0F1410359
:1093A000192B98BF203070477F299ABF0170012088
:1093B0006FF02E0070475AB10A787F2A0AD800B1A0
:1093C0000260002119605960501A18BF01207047CF
:1093D000002070476FF02E007047000008B5034B67
:1093E0005B689B681B68984708BD00BFA479002094
:1093F00008B50921FFF7F2FF08BD844640EA0103E2
:1094000013F0030F18D18446202A0BD32DE9F0075F
:10941000B1E8F807A0E8F807A2F12002202AF7D265
:10942000BDE8F007042A07D351F8043B40F8043B99
:10943000A2F10402042AF7D2002A05D011F8013B58
:1094400000F8013B013AF9D1604670478446002A92
:109450002DD010F0030F04D000F8011B013A26D0E4
:10946000F7E7C9B241EA012141EA0141202A12D3BA
:10947000A2F120022DE9F0030B460C460D460E46E4
:109480000F4688468946A0E8FA03203AFBD2BDE899
:10949000F00320320BD0042A05D340F8041B043A11
:1094A00005D0042AF9D200F8011B013AFBD160462D
:1094B000704700F1010110F0030F11D010F8012BDB
:1094C000002A23D010F0030F0AD010F8012B002A35
:1094D0001CD010F0030F03D010F8012B002A15D078
:1094E0002DE970004FF001324FF0803350F8044BFB
:1094F000A4EB020525EA04051D4000D1F6E7A0F122
:10950000040070BC10F8012B002AFBD1A0EB010075
:029510007047A2
:10951400C89C020000000000C49C0200000000007F
:10952400A69C020000000000CF9C02000000000086
:10953400B49C020000000000B99C0200000000007E
:10954400BE9C0200000000007596020000000404A6
:10955400879C0200000003037D9C020000000000C1
:08956400929C020000000000CF
:10956C00B09502000000000046960200947900209D
:10957C00FC790020C47A0020CC7A0020047A0020E8
:04958C0018000000C3
:10959000FFFFFFFFFFFFFFFFFFFFFFFFFFFFFFFFDB
:1095A00000000000000000000000D60106010000DD
:1095B000F5640200556502009D640200443A5C3285
:1095C0003031385C4B4F44494D4F5C4D6F6E746584
:1095D0005C30315F4465765C30335F457874656E2E
:1095E00073696F6E735C30315F486561645C303302
:1095F0005F536F757263655C30335F6932635F73AD
:10960000746D385C30325F4E6F7264696354657399
:10961000745C636F6D706F6E656E74735C6C6962A1
:109620007261726965735C6C6F675C7372635C6EA8
:1096300072665F6C6F675F6261636B656E645F75B6
:109640006172742E6300756172745F6C6F675F6224
:1096500061636B656E640000F07E00207F00000097
:10966000707F00204261636B656E647320666C7569
:10967000736865640061707000000000AF960200BE
:10968000F4960200B4960200FC96020004970200D1
:109690000C970200149702001C9702002497020006
:1096A000202530327800202020007C002563001B1C
:1096B0005B306D001B5B313B33316D0025734C6FAC
:1096C00067732064726F7070656420282564292593
:1096D000730D0A003C25733E2025733A20000000DC
:1096E000000000002C970200329702003A97020017
:1096F0003F9702001B5B313B33306D001B5B313BFE
:1097000033326D001B5B313B33336D001B5B313BF0
:1097100033346D001B5B313B33356D001B5B313BDC
:1097200033366D001B5B313B33376D006572726FF2
:1097300072007761726E696E6700696E666F0064B1
:109740006562756700415353455254494F4E204658
:1097500041494C45442061742025733A25750045E4
:1097600052524F52202575205B25735D2061742075
:1097700025733A25750D0A50432061743A203078DC
:109780002530387800456E64206F66206572726FF0
:1097900072207265706F727400554E4B4E4F574E6B
:1097A000204641554C54206174203078253038587B
:1097B000003031323334353637383941424344454D
:1097C00046556E6B6E6F776E206572726F72206396
:1097D0006F64650000000000EC98020001000000CA
:1097E000F898020002000000169902000300000031
:1097F00037990200040000004A99020005000000A9
:109800005B990200060000006F990200070000004B
:1098100087990200080000009F99020009000000DB
:10982000B79902000A000000D09902000B00000066
:10983000E89902000C000000FF9902000D000000F2
:10984000139A02000E000000259A02000F0000008B
:10985000349A020010000000489A02001100000033
:109860005F9A0200800000006E9A020081000000F2
:109870008F9A020082000000AB9A02008300000071
:10988000C79A020084000000E59A020085000000EB
:10989000069B0200860000002B9B02009000000047
:1098A000429B020091000000609B020092000000B9
:1098B0007E9B020000820000939B02000182000058
:1098C000B19B020002820000CD9B020000840000D8
:1098D000E99B0200018400000D9C0200028400004C
:1098E000379C0200038400005C9C02004E52465FDD
:1098F00053554343455353004E52465F4552524FD2
:10990000525F5356435F48414E444C45525F4D4968
:109910005353494E47004E52465F4552524F525F95
:10992000534F46544445564943455F4E4F545F4557
:109930004E41424C4544004E52465F4552524F52B2
:109940005F494E5445524E414C004E52465F45527F
:10995000524F525F4E4F5F4D454D004E52465F4550
:1099600052524F525F4E4F545F464F554E44004E39
:1099700052465F4552524F525F4E4F545F535550BF
:10998000504F52544544004E52465F4552524F523A
:109990005F494E56414C49445F504152414D004E43
:1099A00052465F4552524F525F494E56414C4944D0
:1099B0005F5354415445004E52465F4552524F52F8
:1099C0005F494E56414C49445F4C454E4754480010
:1099D0004E52465F4552524F525F494E56414C4996
:1099E000445F464C414753004E52465F4552524FEA
:1099F000525F494E56414C49445F44415441004EE8
:109A000052465F4552524F525F444154415F534961
:109A10005A45004E52465F4552524F525F54494D8F
:109A2000454F5554004E52465F4552524F525F4E7D
:109A3000554C4C004E52465F4552524F525F464F76
:109A40005242494444454E004E52465F4552524FA1
:109A5000525F494E56414C49445F41444452004E86
:109A600052465F4552524F525F42555359004E5233
:109A7000465F4552524F525F4D4F44554C455F4EE5
:109A80004F545F494E495449414C495A4544004E50
:109A900052465F4552524F525F4D555445585F49AB
:109AA0004E49545F4641494C4544004E52465F453D
:109AB00052524F525F4D555445585F4C4F434B5F88
:109AC0004641494C4544004E52465F4552524F5222
:109AD0005F4D555445585F554E4C4F434B5F464183
:109AE000494C4544004E52465F4552524F525F4DDD
:109AF000555445585F434F4E445F494E49545F4665
:109B000041494C4544004E52465F4552524F525FC8
:109B10004D4F44554C455F414C52454144595F4976
:109B20004E495449414C495A4544004E52465F45BE
:109B300052524F525F53544F524147455F46554C26
:109B40004C004E52465F4552524F525F4150495F62
:109B50004E4F545F494D504C454D454E5445440081
:109B60004E52465F4552524F525F46454154555200
:109B7000455F4E4F545F454E41424C4544004E5266
:109B8000465F4552524F525F494F5F50454E4449E0
:109B90004E47004E52465F4552524F525F44525616
:109BA0005F5457495F4552525F4F56455252554E8A
:109BB000004E52465F4552524F525F4452565F54D8
:109BC00057495F4552525F414E41434B004E52460A
:109BD0005F4552524F525F4452565F5457495F455A
:109BE00052525F444E41434B004E52465F455252E3
:109BF0004F525F424C455F495053505F52585F503F
:109C00004B545F5452554E4341544544004E5246C6
:109C10005F4552524F525F424C455F495053505F2F
:109C20004348414E4E454C5F414C52454144595F7B
:109C3000455849535453004E52465F4552524F5275
:109C40005F424C455F495053505F4C494E4B5F4417
:109C50004953434F4E4E4543544544004E52465F90
:109C60004552524F525F424C455F495053505F50EE
:109C70004545525F52454A45435445440061707022
:109C80005F74696D6572006170705F627574746F86
:109C90006E00736F72746C697374000000000000D2
:109CA0000338FDD870475052530000003979020044
:109CB000497902005457494D0055415254005541CD
:109CC00052544500493253004750494F54450054BF
:109CD000494D45520062746E20310062746E20322C
:109CE00000443A5C323031385C4B4F44494D4F5C54
:109CF0004D6F6E74655C30315F4465765C30335F08
:109D0000457874656E73696F6E735C30315F48655A
:109D100061645C30335F536F757263655C30335FD1
:109D20006932635F73746D385C30325F4E6F72649A
:109D30006963546573745C4170706C6963617469C4
:109D40006F6E5C7065726970686572616C5C747767
:109D5000695F7363616E6E65725F6F72675C6D6180
:109D6000696E2E63004B4F44494D4F00556E6B6E2C
:109D70006F7700545749207363616E6E657220736C
:109D80007461727465642E003131310048656C6F06
:109D90006F6F6F6F6F00545950455F44455649438C
:109DA000455F5245473D2578004C45445F53455239
:109DB000564F5F455854454E53494F4E002573202A
:109DC00066726F6D2025730044697374616E6365FC
:109DD0003A70303D256420636D20616E676C653A92
:109DE000256400556E6B6E6F772065767400616E2A
:109DF000676C655F76616C75653A256400000000EC
:109E000000000000003000400000000001000000E1
:109E100020202020202020202068282828282020DA
:109E20002020202020202020202020202020202032
:109E300048101010101010101010101010101010EA
:109E4000848484848484848484841010101010108A
:109E500010818181818181010101010101010101E3
:109E60000101010101010101010101101010101097
:109E700010828282828282020202020202020202B4
:109E8000020202020202020202020210101010205C
:109E9000000703200417020108571040800000004B
:109EA00044A00200089F02001CA0020053756E002F
:109EB0004D6F6E00547565005765640054687500F9
:109EC0004672690053617400000000004A616E0030
:109ED000466562004D617200417072004D6179000B
:109EE0004A756E004A756C004175670053657000D5
:109EF0004F6374004E6F76004465630000000000FD
:109F0000414D00504D00000040A002003CA0020066
:109F10003CA002003CA002003CA002003CA00200C9
:109F20003CA002003CA002003CA002003CA00200B9
:109F3000FFFFFFFFFFFFFFFFFFFFFFFFFFFF00002F
:109F40007C9F0200AC9E0200B89F0200CC9E0200E3
:109F5000009F0200609F020010A002006C9F0200A0
:109F6000256D2F25642F257900000000256120250F
:109F700062202565202554202559000053756E6404
:109F80006179004D6F6E6461790054756573646129
:109F900079005765646E6573646179005468757201
:109FA0007364617900467269646179005361747504
:109FB00072646179000000004A616E756172790017
:109FC0004665627275617279004D61726368004125
:109FD0007072696C004D6179004A756E65004A7552
:109FE0006C79004175677573740053657074656DA5
:109FF000626572004F63746F626572004E6F7665C2
:10A000006D62657200446563656D62657200000093
:10A0100025483A254D3A255300000000419302009F
:10A020005D93020069930200759302009193020010
:10A030009D930200A9930200B79302000000000064
:10A040002E00000043000000504F5349580000000C
:10A050000000000000200040000000000020004040
:10A060000000000000000000FF0000000A000000E7
:10A070000090D003A09E0200A09E0200A09E0200BD
:08A08000A09E0200A09E020058
:040000032000637501
:00000001FF
